{
  "contractName": "Charity",
  "abi": [
    {
      "constant": true,
      "inputs": [
        {
          "name": "",
          "type": "uint256"
        }
      ],
      "name": "arrayReceiver",
      "outputs": [
        {
          "name": "idReceiver",
          "type": "uint256"
        },
        {
          "name": "name",
          "type": "string"
        },
        {
          "name": "totalMoneyReceived",
          "type": "uint256"
        },
        {
          "name": "Description",
          "type": "string"
        }
      ],
      "payable": false,
      "stateMutability": "view",
      "type": "function"
    },
    {
      "constant": true,
      "inputs": [
        {
          "name": "",
          "type": "uint256"
        }
      ],
      "name": "arrayGiveth",
      "outputs": [
        {
          "name": "idGiveth",
          "type": "uint256"
        },
        {
          "name": "name",
          "type": "string"
        },
        {
          "name": "location",
          "type": "string"
        },
        {
          "name": "idEvent",
          "type": "uint256"
        },
        {
          "name": "totalMoneygive",
          "type": "uint256"
        },
        {
          "name": "incognito",
          "type": "bool"
        },
        {
          "name": "Description",
          "type": "string"
        }
      ],
      "payable": false,
      "stateMutability": "view",
      "type": "function"
    },
    {
      "constant": true,
      "inputs": [
        {
          "name": "",
          "type": "uint256"
        }
      ],
      "name": "arrayEvents",
      "outputs": [
        {
          "name": "",
          "type": "address"
        }
      ],
      "payable": false,
      "stateMutability": "view",
      "type": "function"
    },
    {
      "constant": true,
      "inputs": [],
      "name": "admin",
      "outputs": [
        {
          "name": "",
          "type": "address"
        }
      ],
      "payable": false,
      "stateMutability": "view",
      "type": "function"
    },
    {
      "inputs": [],
      "payable": false,
      "stateMutability": "nonpayable",
      "type": "constructor"
    },
    {
      "constant": false,
      "inputs": [
        {
          "name": "idevent",
          "type": "uint256"
        },
        {
          "name": "name",
          "type": "string"
        },
        {
          "name": "dateopen",
          "type": "string"
        },
        {
          "name": "dateclose",
          "type": "string"
        },
        {
          "name": "totalmoneymin",
          "type": "uint256"
        },
        {
          "name": "location",
          "type": "string"
        },
        {
          "name": "receiver",
          "type": "string"
        },
        {
          "name": "description",
          "type": "string"
        }
      ],
      "name": "addEvents",
      "outputs": [],
      "payable": false,
      "stateMutability": "nonpayable",
      "type": "function"
    },
    {
      "constant": true,
      "inputs": [
        {
          "name": "idevent",
          "type": "uint256"
        }
      ],
      "name": "getNameEvent",
      "outputs": [
        {
          "name": "",
          "type": "string"
        }
      ],
      "payable": false,
      "stateMutability": "view",
      "type": "function"
    },
    {
      "constant": true,
      "inputs": [
        {
          "name": "idevent",
          "type": "uint256"
        }
      ],
      "name": "getDateOpent",
      "outputs": [
        {
          "name": "",
          "type": "string"
        }
      ],
      "payable": false,
      "stateMutability": "view",
      "type": "function"
    },
    {
      "constant": true,
      "inputs": [
        {
          "name": "idevent",
          "type": "uint256"
        }
      ],
      "name": "getDateClose",
      "outputs": [
        {
          "name": "",
          "type": "string"
        }
      ],
      "payable": false,
      "stateMutability": "view",
      "type": "function"
    },
    {
      "constant": true,
      "inputs": [
        {
          "name": "idevent",
          "type": "uint256"
        }
      ],
      "name": "getTotalMoney",
      "outputs": [
        {
          "name": "",
          "type": "uint256"
        }
      ],
      "payable": false,
      "stateMutability": "view",
      "type": "function"
    },
    {
      "constant": true,
      "inputs": [
        {
          "name": "idevent",
          "type": "uint256"
        }
      ],
      "name": "getreceiver",
      "outputs": [
        {
          "name": "",
          "type": "string"
        }
      ],
      "payable": false,
      "stateMutability": "view",
      "type": "function"
    },
    {
      "constant": false,
      "inputs": [
        {
          "name": "id",
          "type": "uint256"
        },
        {
          "name": "name",
          "type": "string"
        },
        {
          "name": "location",
          "type": "string"
        },
        {
          "name": "idevent",
          "type": "uint256"
        },
        {
          "name": "money",
          "type": "uint256"
        },
        {
          "name": "incognito",
          "type": "bool"
        },
        {
          "name": "desc",
          "type": "string"
        }
      ],
      "name": "addGiveth",
      "outputs": [],
      "payable": false,
      "stateMutability": "nonpayable",
      "type": "function"
    },
    {
      "constant": false,
      "inputs": [
        {
          "name": "id",
          "type": "uint256"
        },
        {
          "name": "name",
          "type": "string"
        },
        {
          "name": "money",
          "type": "uint256"
        },
        {
          "name": "desc",
          "type": "string"
        }
      ],
      "name": "addReceiver",
      "outputs": [],
      "payable": false,
      "stateMutability": "nonpayable",
      "type": "function"
    },
    {
      "constant": true,
      "inputs": [
        {
          "name": "id",
          "type": "uint256"
        }
      ],
      "name": "getNameGiveth",
      "outputs": [
        {
          "name": "",
          "type": "string"
        }
      ],
      "payable": false,
      "stateMutability": "view",
      "type": "function"
    },
    {
      "constant": true,
      "inputs": [
        {
          "name": "id",
          "type": "uint256"
        }
      ],
      "name": "getLocationGiveth",
      "outputs": [
        {
          "name": "",
          "type": "string"
        }
      ],
      "payable": false,
      "stateMutability": "view",
      "type": "function"
    },
    {
      "constant": true,
      "inputs": [
        {
          "name": "id",
          "type": "uint256"
        }
      ],
      "name": "getIdEvent",
      "outputs": [
        {
          "name": "",
          "type": "uint256"
        }
      ],
      "payable": false,
      "stateMutability": "view",
      "type": "function"
    },
    {
      "constant": true,
      "inputs": [
        {
          "name": "id",
          "type": "uint256"
        }
      ],
      "name": "getTotalMoneyGiveth",
      "outputs": [
        {
          "name": "",
          "type": "uint256"
        }
      ],
      "payable": false,
      "stateMutability": "view",
      "type": "function"
    },
    {
      "constant": true,
      "inputs": [
        {
          "name": "id",
          "type": "uint256"
        }
      ],
      "name": "getIncognito",
      "outputs": [
        {
          "name": "",
          "type": "bool"
        }
      ],
      "payable": false,
      "stateMutability": "view",
      "type": "function"
    },
    {
      "constant": true,
      "inputs": [
        {
          "name": "id",
          "type": "uint256"
        }
      ],
      "name": "getDescriptionGiveth",
      "outputs": [
        {
          "name": "",
          "type": "string"
        }
      ],
      "payable": false,
      "stateMutability": "view",
      "type": "function"
    },
    {
      "constant": true,
      "inputs": [
        {
          "name": "id",
          "type": "uint256"
        }
      ],
      "name": "getnameReceiver",
      "outputs": [
        {
          "name": "",
          "type": "string"
        }
      ],
      "payable": false,
      "stateMutability": "view",
      "type": "function"
    },
    {
      "constant": true,
      "inputs": [
        {
          "name": "id",
          "type": "uint256"
        }
      ],
      "name": "gettotalMoneyReceived",
      "outputs": [
        {
          "name": "",
          "type": "uint256"
        }
      ],
      "payable": false,
      "stateMutability": "view",
      "type": "function"
    },
    {
      "constant": true,
      "inputs": [
        {
          "name": "id",
          "type": "uint256"
        }
      ],
      "name": "getDescriptionReceived",
      "outputs": [
        {
          "name": "",
          "type": "string"
        }
      ],
      "payable": false,
      "stateMutability": "view",
      "type": "function"
    }
  ],
  "bytecode": "0x608060405234801561001057600080fd5b50336000806101000a81548173ffffffffffffffffffffffffffffffffffffffff021916908373ffffffffffffffffffffffffffffffffffffffff1602179055506139cb806100606000396000f30060806040526004361061011d576000357c0100000000000000000000000000000000000000000000000000000000900463ffffffff1680630453f812146101225780630c0d9eeb146101635780630d060a20146101a4578063468da6d5146102c4578063514f1e06146103e3578063560d082a146104a6578063581781d11461054c578063597b8116146105f25780635f5867b2146106985780636de1be42146108365780639386e4a4146108dc578063a675eecc14610ab7578063ae63d20614610b5d578063b66c840014610c03578063b9e317ca14610c44578063c6cdae9f14610c89578063c7fa417e14610d2f578063cbe15f1114610dd5578063d3148aff14610e7b578063eecb200b14610ee8578063f851a44014610f29575b600080fd5b34801561012e57600080fd5b5061014d60048036038101908080359060200190929190505050610f80565b6040518082815260200191505060405180910390f35b34801561016f57600080fd5b5061018e60048036038101908080359060200190929190505050611167565b6040518082815260200191505060405180910390f35b3480156101b057600080fd5b506101cf600480360381019080803590602001909291905050506111e0565b604051808581526020018060200184815260200180602001838103835286818151815260200191508051906020019080838360005b8381101561021f578082015181840152602081019050610204565b50505050905090810190601f16801561024c5780820380516001836020036101000a031916815260200191505b50838103825284818151815260200191508051906020019080838360005b8381101561028557808201518184015260208101905061026a565b50505050905090810190601f1680156102b25780820380516001836020036101000a031916815260200191505b50965050505050505060405180910390f35b3480156102d057600080fd5b506103e160048036038101908080359060200190929190803590602001908201803590602001908080601f0160208091040260200160405190810160405280939291908181526020018383808284378201915050505050509192919290803590602001908201803590602001908080601f01602080910402602001604051908101604052809392919081815260200183838082843782019150505050505091929192908035906020019092919080359060200190929190803515159060200190929190803590602001908201803590602001908080601f016020809104026020016040519081016040528093929190818152602001838380828437820191505050505050919291929050505061134f565b005b3480156103ef57600080fd5b506104a460048036038101908080359060200190929190803590602001908201803590602001908080601f016020809104026020016040519081016040528093929190818152602001838380828437820191505050505050919291929080359060200190929190803590602001908201803590602001908080601f016020809104026020016040519081016040528093929190818152602001838380828437820191505050505050919291929050505061145f565b005b3480156104b257600080fd5b506104d16004803603810190808035906020019092919050505061156c565b6040518080602001828103825283818151815260200191508051906020019080838360005b838110156105115780820151818401526020810190506104f6565b50505050905090810190601f16801561053e5780820380516001836020036101000a031916815260200191505b509250505060405180910390f35b34801561055857600080fd5b506105776004803603810190808035906020019092919050505061167d565b6040518080602001828103825283818151815260200191508051906020019080838360005b838110156105b757808201518184015260208101905061059c565b50505050905090810190601f1680156105e45780820380516001836020036101000a031916815260200191505b509250505060405180910390f35b3480156105fe57600080fd5b5061061d6004803603810190808035906020019092919050505061178e565b6040518080602001828103825283818151815260200191508051906020019080838360005b8381101561065d578082015181840152602081019050610642565b50505050905090810190601f16801561068a5780820380516001836020036101000a031916815260200191505b509250505060405180910390f35b3480156106a457600080fd5b506106c36004803603810190808035906020019092919050505061189f565b604051808881526020018060200180602001878152602001868152602001851515151581526020018060200184810384528a818151815260200191508051906020019080838360005b8381101561072757808201518184015260208101905061070c565b50505050905090810190601f1680156107545780820380516001836020036101000a031916815260200191505b50848103835289818151815260200191508051906020019080838360005b8381101561078d578082015181840152602081019050610772565b50505050905090810190601f1680156107ba5780820380516001836020036101000a031916815260200191505b50848103825285818151815260200191508051906020019080838360005b838110156107f35780820151818401526020810190506107d8565b50505050905090810190601f1680156108205780820380516001836020036101000a031916815260200191505b509a505050505050505050505060405180910390f35b34801561084257600080fd5b5061086160048036038101908080359060200190929190505050611ac5565b6040518080602001828103825283818151815260200191508051906020019080838360005b838110156108a1578082015181840152602081019050610886565b50505050905090810190601f1680156108ce5780820380516001836020036101000a031916815260200191505b509250505060405180910390f35b3480156108e857600080fd5b50610ab560048036038101908080359060200190929190803590602001908201803590602001908080601f0160208091040260200160405190810160405280939291908181526020018383808284378201915050505050509192919290803590602001908201803590602001908080601f0160208091040260200160405190810160405280939291908181526020018383808284378201915050505050509192919290803590602001908201803590602001908080601f016020809104026020016040519081016040528093929190818152602001838380828437820191505050505050919291929080359060200190929190803590602001908201803590602001908080601f0160208091040260200160405190810160405280939291908181526020018383808284378201915050505050509192919290803590602001908201803590602001908080601f0160208091040260200160405190810160405280939291908181526020018383808284378201915050505050509192919290803590602001908201803590602001908080601f0160208091040260200160405190810160405280939291908181526020018383808284378201915050505050509192919290505050611d02565b005b348015610ac357600080fd5b50610ae260048036038101908080359060200190929190505050612114565b6040518080602001828103825283818151815260200191508051906020019080838360005b83811015610b22578082015181840152602081019050610b07565b50505050905090810190601f168015610b4f5780820380516001836020036101000a031916815260200191505b509250505060405180910390f35b348015610b6957600080fd5b50610b8860048036038101908080359060200190929190505050612225565b6040518080602001828103825283818151815260200191508051906020019080838360005b83811015610bc8578082015181840152602081019050610bad565b50505050905090810190601f168015610bf55780820380516001836020036101000a031916815260200191505b509250505060405180910390f35b348015610c0f57600080fd5b50610c2e60048036038101908080359060200190929190505050612462565b6040518082815260200191505060405180910390f35b348015610c5057600080fd5b50610c6f600480360381019080803590602001909291905050506124db565b604051808215151515815260200191505060405180910390f35b348015610c9557600080fd5b50610cb460048036038101908080359060200190929190505050612561565b6040518080602001828103825283818151815260200191508051906020019080838360005b83811015610cf4578082015181840152602081019050610cd9565b50505050905090810190601f168015610d215780820380516001836020036101000a031916815260200191505b509250505060405180910390f35b348015610d3b57600080fd5b50610d5a6004803603810190808035906020019092919050505061279e565b6040518080602001828103825283818151815260200191508051906020019080838360005b83811015610d9a578082015181840152602081019050610d7f565b50505050905090810190601f168015610dc75780820380516001836020036101000a031916815260200191505b509250505060405180910390f35b348015610de157600080fd5b50610e00600480360381019080803590602001909291905050506128af565b6040518080602001828103825283818151815260200191508051906020019080838360005b83811015610e40578082015181840152602081019050610e25565b50505050905090810190601f168015610e6d5780820380516001836020036101000a031916815260200191505b509250505060405180910390f35b348015610e8757600080fd5b50610ea660048036038101908080359060200190929190505050612aec565b604051808273ffffffffffffffffffffffffffffffffffffffff1673ffffffffffffffffffffffffffffffffffffffff16815260200191505060405180910390f35b348015610ef457600080fd5b50610f1360048036038101908080359060200190929190505050612b2a565b6040518082815260200191505060405180910390f35b348015610f3557600080fd5b50610f3e612ba3565b604051808273ffffffffffffffffffffffffffffffffffffffff1673ffffffffffffffffffffffffffffffffffffffff16815260200191505060405180910390f35b600080600090505b60038054905081101561116057600381815481101515610fa457fe5b9060005260206000200160009054906101000a900473ffffffffffffffffffffffffffffffffffffffff1673ffffffffffffffffffffffffffffffffffffffff166323fe802a6040518163ffffffff167c0100000000000000000000000000000000000000000000000000000000028152600401602060405180830381600087803b15801561103257600080fd5b505af1158015611046573d6000803e3d6000fd5b505050506040513d602081101561105c57600080fd5b81019080805190602001909291905050508314156111535760038181548110151561108357fe5b9060005260206000200160009054906101000a900473ffffffffffffffffffffffffffffffffffffffff1673ffffffffffffffffffffffffffffffffffffffff1663aa65185f6040518163ffffffff167c0100000000000000000000000000000000000000000000000000000000028152600401602060405180830381600087803b15801561111157600080fd5b505af1158015611125573d6000803e3d6000fd5b505050506040513d602081101561113b57600080fd5b81019080805190602001909291905050509150611161565b8080600101915050610f88565b5b50919050565b600080600090505b6002805490508110156111d95760028181548110151561118b57fe5b9060005260206000209060040201600001548314156111cc576002818154811015156111b357fe5b90600052602060002090600402016002015491506111da565b808060010191505061116f565b5b50919050565b6002818154811015156111ef57fe5b9060005260206000209060040201600091509050806000015490806001018054600181600116156101000203166002900480601f0160208091040260200160405190810160405280929190818152602001828054600181600116156101000203166002900480156112a15780601f10611276576101008083540402835291602001916112a1565b820191906000526020600020905b81548152906001019060200180831161128457829003601f168201915b505050505090806002015490806003018054600181600116156101000203166002900480601f0160208091040260200160405190810160405280929190818152602001828054600181600116156101000203166002900480156113455780601f1061131a57610100808354040283529160200191611345565b820191906000526020600020905b81548152906001019060200180831161132857829003601f168201915b5050505050905084565b611357612bc8565b60e0604051908101604052808981526020018881526020018781526020018681526020018581526020018415158152602001838152509050600181908060018154018082558091505090600182039060005260206000209060070201600090919290919091506000820151816000015560208201518160010190805190602001906113e3929190612c08565b506040820151816002019080519060200190611400929190612c08565b50606082015181600301556080820151816004015560a08201518160050160006101000a81548160ff02191690831515021790555060c0820151816006019080519060200190611451929190612c08565b505050505050505050505050565b611467612c88565b6000809054906101000a900473ffffffffffffffffffffffffffffffffffffffff1673ffffffffffffffffffffffffffffffffffffffff163373ffffffffffffffffffffffffffffffffffffffff161415156114c257600080fd5b6080604051908101604052808681526020018581526020018481526020018381525090506002819080600181540180825580915050906001820390600052602060002090600402016000909192909190915060008201518160000155602082015181600101908051906020019061153a929190612c08565b50604082015181600201556060820151816003019080519060200190611561929190612c08565b505050505050505050565b606060008090505b6002805490508110156116765760028181548110151561159057fe5b906000526020600020906004020160000154831415611669576002818154811015156115b857fe5b90600052602060002090600402016003018054600181600116156101000203166002900480601f01602080910402602001604051908101604052809291908181526020018280546001816001161561010002031660029004801561165d5780601f106116325761010080835404028352916020019161165d565b820191906000526020600020905b81548152906001019060200180831161164057829003601f168201915b50505050509150611677565b8080600101915050611574565b5b50919050565b606060008090505b600280549050811015611787576002818154811015156116a157fe5b90600052602060002090600402016000015483141561177a576002818154811015156116c957fe5b90600052602060002090600402016001018054600181600116156101000203166002900480601f01602080910402602001604051908101604052809291908181526020018280546001816001161561010002031660029004801561176e5780601f106117435761010080835404028352916020019161176e565b820191906000526020600020905b81548152906001019060200180831161175157829003601f168201915b50505050509150611788565b8080600101915050611685565b5b50919050565b606060008090505b600180549050811015611898576001818154811015156117b257fe5b90600052602060002090600702016000015483141561188b576001818154811015156117da57fe5b90600052602060002090600702016006018054600181600116156101000203166002900480601f01602080910402602001604051908101604052809291908181526020018280546001816001161561010002031660029004801561187f5780601f106118545761010080835404028352916020019161187f565b820191906000526020600020905b81548152906001019060200180831161186257829003601f168201915b50505050509150611899565b8080600101915050611796565b5b50919050565b6001818154811015156118ae57fe5b9060005260206000209060070201600091509050806000015490806001018054600181600116156101000203166002900480601f0160208091040260200160405190810160405280929190818152602001828054600181600116156101000203166002900480156119605780601f1061193557610100808354040283529160200191611960565b820191906000526020600020905b81548152906001019060200180831161194357829003601f168201915b505050505090806002018054600181600116156101000203166002900480601f0160208091040260200160405190810160405280929190818152602001828054600181600116156101000203166002900480156119fe5780601f106119d3576101008083540402835291602001916119fe565b820191906000526020600020905b8154815290600101906020018083116119e157829003601f168201915b5050505050908060030154908060040154908060050160009054906101000a900460ff1690806006018054600181600116156101000203166002900480601f016020809104026020016040519081016040528092919081815260200182805460018160011615610100020316600290048015611abb5780601f10611a9057610100808354040283529160200191611abb565b820191906000526020600020905b815481529060010190602001808311611a9e57829003601f168201915b5050505050905087565b606060008090505b600380549050811015611cfb57600381815481101515611ae957fe5b9060005260206000200160009054906101000a900473ffffffffffffffffffffffffffffffffffffffff1673ffffffffffffffffffffffffffffffffffffffff166323fe802a6040518163ffffffff167c0100000000000000000000000000000000000000000000000000000000028152600401602060405180830381600087803b158015611b7757600080fd5b505af1158015611b8b573d6000803e3d6000fd5b505050506040513d6020811015611ba157600080fd5b8101908080519060200190929190505050831415611cee57600381815481101515611bc857fe5b9060005260206000200160009054906101000a900473ffffffffffffffffffffffffffffffffffffffff1673ffffffffffffffffffffffffffffffffffffffff1663dd2168ba6040518163ffffffff167c0100000000000000000000000000000000000000000000000000000000028152600401600060405180830381600087803b158015611c5657600080fd5b505af1158015611c6a573d6000803e3d6000fd5b505050506040513d6000823e3d601f19601f820116820180604052506020811015611c9457600080fd5b810190808051640100000000811115611cac57600080fd5b82810190506020810184811115611cc257600080fd5b8151856001820283011164010000000082111715611cdf57600080fd5b50509291905050509150611cfc565b8080600101915050611acd565b5b50919050565b60008060009054906101000a900473ffffffffffffffffffffffffffffffffffffffff1673ffffffffffffffffffffffffffffffffffffffff163373ffffffffffffffffffffffffffffffffffffffff16141515611d5f57600080fd5b611d67612cb1565b604051809103906000f080158015611d83573d6000803e3d6000fd5b5090508073ffffffffffffffffffffffffffffffffffffffff1663bab92cf08a8a8a8a8a8a8a8a6040518963ffffffff167c01000000000000000000000000000000000000000000000000000000000281526004018089815260200180602001806020018060200188815260200180602001806020018060200187810387528e818151815260200191508051906020019080838360005b83811015611e35578082015181840152602081019050611e1a565b50505050905090810190601f168015611e625780820380516001836020036101000a031916815260200191505b5087810386528d818151815260200191508051906020019080838360005b83811015611e9b578082015181840152602081019050611e80565b50505050905090810190601f168015611ec85780820380516001836020036101000a031916815260200191505b5087810385528c818151815260200191508051906020019080838360005b83811015611f01578082015181840152602081019050611ee6565b50505050905090810190601f168015611f2e5780820380516001836020036101000a031916815260200191505b5087810384528a818151815260200191508051906020019080838360005b83811015611f67578082015181840152602081019050611f4c565b50505050905090810190601f168015611f945780820380516001836020036101000a031916815260200191505b50878103835289818151815260200191508051906020019080838360005b83811015611fcd578082015181840152602081019050611fb2565b50505050905090810190601f168015611ffa5780820380516001836020036101000a031916815260200191505b50878103825288818151815260200191508051906020019080838360005b83811015612033578082015181840152602081019050612018565b50505050905090810190601f1680156120605780820380516001836020036101000a031916815260200191505b509e505050505050505050505050505050600060405180830381600087803b15801561208b57600080fd5b505af115801561209f573d6000803e3d6000fd5b5050505060038190806001815401808255809150509060018203906000526020600020016000909192909190916101000a81548173ffffffffffffffffffffffffffffffffffffffff021916908373ffffffffffffffffffffffffffffffffffffffff16021790555050505050505050505050565b606060008090505b60018054905081101561221e5760018181548110151561213857fe5b9060005260206000209060070201600001548314156122115760018181548110151561216057fe5b90600052602060002090600702016001018054600181600116156101000203166002900480601f0160208091040260200160405190810160405280929190818152602001828054600181600116156101000203166002900480156122055780601f106121da57610100808354040283529160200191612205565b820191906000526020600020905b8154815290600101906020018083116121e857829003601f168201915b5050505050915061221f565b808060010191505061211c565b5b50919050565b606060008090505b60038054905081101561245b5760038181548110151561224957fe5b9060005260206000200160009054906101000a900473ffffffffffffffffffffffffffffffffffffffff1673ffffffffffffffffffffffffffffffffffffffff166323fe802a6040518163ffffffff167c0100000000000000000000000000000000000000000000000000000000028152600401602060405180830381600087803b1580156122d757600080fd5b505af11580156122eb573d6000803e3d6000fd5b505050506040513d602081101561230157600080fd5b810190808051906020019092919050505083141561244e5760038181548110151561232857fe5b9060005260206000200160009054906101000a900473ffffffffffffffffffffffffffffffffffffffff1673ffffffffffffffffffffffffffffffffffffffff16634ae1e2986040518163ffffffff167c0100000000000000000000000000000000000000000000000000000000028152600401600060405180830381600087803b1580156123b657600080fd5b505af11580156123ca573d6000803e3d6000fd5b505050506040513d6000823e3d601f19601f8201168201806040525060208110156123f457600080fd5b81019080805164010000000081111561240c57600080fd5b8281019050602081018481111561242257600080fd5b815185600182028301116401000000008211171561243f57600080fd5b5050929190505050915061245c565b808060010191505061222d565b5b50919050565b600080600090505b6001805490508110156124d45760018181548110151561248657fe5b9060005260206000209060070201600001548314156124c7576001818154811015156124ae57fe5b90600052602060002090600702016003015491506124d5565b808060010191505061246a565b5b50919050565b600080600090505b60018054905081101561255a576001818154811015156124ff57fe5b90600052602060002090600702016000015483141561254d5760018181548110151561252757fe5b906000526020600020906007020160050160009054906101000a900460ff16915061255b565b80806001019150506124e3565b5b50919050565b606060008090505b6003805490508110156127975760038181548110151561258557fe5b9060005260206000200160009054906101000a900473ffffffffffffffffffffffffffffffffffffffff1673ffffffffffffffffffffffffffffffffffffffff166323fe802a6040518163ffffffff167c0100000000000000000000000000000000000000000000000000000000028152600401602060405180830381600087803b15801561261357600080fd5b505af1158015612627573d6000803e3d6000fd5b505050506040513d602081101561263d57600080fd5b810190808051906020019092919050505083141561278a5760038181548110151561266457fe5b9060005260206000200160009054906101000a900473ffffffffffffffffffffffffffffffffffffffff1673ffffffffffffffffffffffffffffffffffffffff16638145c30a6040518163ffffffff167c0100000000000000000000000000000000000000000000000000000000028152600401600060405180830381600087803b1580156126f257600080fd5b505af1158015612706573d6000803e3d6000fd5b505050506040513d6000823e3d601f19601f82011682018060405250602081101561273057600080fd5b81019080805164010000000081111561274857600080fd5b8281019050602081018481111561275e57600080fd5b815185600182028301116401000000008211171561277b57600080fd5b50509291905050509150612798565b8080600101915050612569565b5b50919050565b606060008090505b6001805490508110156128a8576001818154811015156127c257fe5b90600052602060002090600702016000015483141561289b576001818154811015156127ea57fe5b90600052602060002090600702016002018054600181600116156101000203166002900480601f01602080910402602001604051908101604052809291908181526020018280546001816001161561010002031660029004801561288f5780601f106128645761010080835404028352916020019161288f565b820191906000526020600020905b81548152906001019060200180831161287257829003601f168201915b505050505091506128a9565b80806001019150506127a6565b5b50919050565b606060008090505b600380549050811015612ae5576003818154811015156128d357fe5b9060005260206000200160009054906101000a900473ffffffffffffffffffffffffffffffffffffffff1673ffffffffffffffffffffffffffffffffffffffff166323fe802a6040518163ffffffff167c0100000000000000000000000000000000000000000000000000000000028152600401602060405180830381600087803b15801561296157600080fd5b505af1158015612975573d6000803e3d6000fd5b505050506040513d602081101561298b57600080fd5b8101908080519060200190929190505050831415612ad8576003818154811015156129b257fe5b9060005260206000200160009054906101000a900473ffffffffffffffffffffffffffffffffffffffff1673ffffffffffffffffffffffffffffffffffffffff166398aca9226040518163ffffffff167c0100000000000000000000000000000000000000000000000000000000028152600401600060405180830381600087803b158015612a4057600080fd5b505af1158015612a54573d6000803e3d6000fd5b505050506040513d6000823e3d601f19601f820116820180604052506020811015612a7e57600080fd5b810190808051640100000000811115612a9657600080fd5b82810190506020810184811115612aac57600080fd5b8151856001820283011164010000000082111715612ac957600080fd5b50509291905050509150612ae6565b80806001019150506128b7565b5b50919050565b600381815481101515612afb57fe5b906000526020600020016000915054906101000a900473ffffffffffffffffffffffffffffffffffffffff1681565b600080600090505b600180549050811015612b9c57600181815481101515612b4e57fe5b906000526020600020906007020160000154831415612b8f57600181815481101515612b7657fe5b9060005260206000209060070201600401549150612b9d565b8080600101915050612b32565b5b50919050565b6000809054906101000a900473ffffffffffffffffffffffffffffffffffffffff1681565b60e0604051908101604052806000815260200160608152602001606081526020016000815260200160008152602001600015158152602001606081525090565b828054600181600116156101000203166002900490600052602060002090601f016020900481019282601f10612c4957805160ff1916838001178555612c77565b82800160010185558215612c77579182015b82811115612c76578251825591602001919060010190612c5b565b5b509050612c849190612cc1565b5090565b608060405190810160405280600081526020016060815260200160008152602001606081525090565b604051610cb980612ce783390190565b612ce391905b80821115612cdf576000816000905550600101612cc7565b5090565b905600608060405234801561001057600080fd5b5033600860006101000a81548173ffffffffffffffffffffffffffffffffffffffff021916908373ffffffffffffffffffffffffffffffffffffffff160217905550610c58806100616000396000f3006080604052600436106100a4576000357c0100000000000000000000000000000000000000000000000000000000900463ffffffff1680631a092541146100a957806323fe802a146101395780634ae1e298146101645780638145c30a146101f457806398aca92214610284578063aa65185f14610314578063bab92cf01461033f578063c5d6f9e81461050d578063dd2168ba1461059d578063f851a4401461062d575b600080fd5b3480156100b557600080fd5b506100be610684565b6040518080602001828103825283818151815260200191508051906020019080838360005b838110156100fe5780820151818401526020810190506100e3565b50505050905090810190601f16801561012b5780820380516001836020036101000a031916815260200191505b509250505060405180910390f35b34801561014557600080fd5b5061014e610726565b6040518082815260200191505060405180910390f35b34801561017057600080fd5b5061017961072f565b6040518080602001828103825283818151815260200191508051906020019080838360005b838110156101b957808201518184015260208101905061019e565b50505050905090810190601f1680156101e65780820380516001836020036101000a031916815260200191505b509250505060405180910390f35b34801561020057600080fd5b506102096107d1565b6040518080602001828103825283818151815260200191508051906020019080838360005b8381101561024957808201518184015260208101905061022e565b50505050905090810190601f1680156102765780820380516001836020036101000a031916815260200191505b509250505060405180910390f35b34801561029057600080fd5b50610299610873565b6040518080602001828103825283818151815260200191508051906020019080838360005b838110156102d95780820151818401526020810190506102be565b50505050905090810190601f1680156103065780820380516001836020036101000a031916815260200191505b509250505060405180910390f35b34801561032057600080fd5b50610329610915565b6040518082815260200191505060405180910390f35b61050b60048036038101908080359060200190929190803590602001908201803590602001908080601f0160208091040260200160405190810160405280939291908181526020018383808284378201915050505050509192919290803590602001908201803590602001908080601f0160208091040260200160405190810160405280939291908181526020018383808284378201915050505050509192919290803590602001908201803590602001908080601f016020809104026020016040519081016040528093929190818152602001838380828437820191505050505050919291929080359060200190929190803590602001908201803590602001908080601f0160208091040260200160405190810160405280939291908181526020018383808284378201915050505050509192919290803590602001908201803590602001908080601f0160208091040260200160405190810160405280939291908181526020018383808284378201915050505050509192919290803590602001908201803590602001908080601f016020809104026020016040519081016040528093929190818152602001838380828437820191505050505050919291929050505061091f565b005b34801561051957600080fd5b50610522610a1d565b6040518080602001828103825283818151815260200191508051906020019080838360005b83811015610562578082015181840152602081019050610547565b50505050905090810190601f16801561058f5780820380516001836020036101000a031916815260200191505b509250505060405180910390f35b3480156105a957600080fd5b506105b2610abf565b6040518080602001828103825283818151815260200191508051906020019080838360005b838110156105f25780820151818401526020810190506105d7565b50505050905090810190601f16801561061f5780820380516001836020036101000a031916815260200191505b509250505060405180910390f35b34801561063957600080fd5b50610642610b61565b604051808273ffffffffffffffffffffffffffffffffffffffff1673ffffffffffffffffffffffffffffffffffffffff16815260200191505060405180910390f35b606060078054600181600116156101000203166002900480601f01602080910402602001604051908101604052809291908181526020018280546001816001161561010002031660029004801561071c5780601f106106f15761010080835404028352916020019161071c565b820191906000526020600020905b8154815290600101906020018083116106ff57829003601f168201915b5050505050905090565b60008054905090565b606060018054600181600116156101000203166002900480601f0160208091040260200160405190810160405280929190818152602001828054600181600116156101000203166002900480156107c75780601f1061079c576101008083540402835291602001916107c7565b820191906000526020600020905b8154815290600101906020018083116107aa57829003601f168201915b5050505050905090565b606060038054600181600116156101000203166002900480601f0160208091040260200160405190810160405280929190818152602001828054600181600116156101000203166002900480156108695780601f1061083e57610100808354040283529160200191610869565b820191906000526020600020905b81548152906001019060200180831161084c57829003601f168201915b5050505050905090565b606060068054600181600116156101000203166002900480601f01602080910402602001604051908101604052809291908181526020018280546001816001161561010002031660029004801561090b5780601f106108e05761010080835404028352916020019161090b565b820191906000526020600020905b8154815290600101906020018083116108ee57829003601f168201915b5050505050905090565b6000600454905090565b600860009054906101000a900473ffffffffffffffffffffffffffffffffffffffff1673ffffffffffffffffffffffffffffffffffffffff163373ffffffffffffffffffffffffffffffffffffffff1614151561097b57600080fd5b876000819055508660019080519060200190610998929190610b87565b5085600290805190602001906109af929190610b87565b5084600390805190602001906109c6929190610b87565b508360048190555082600590805190602001906109e4929190610b87565b5081600690805190602001906109fb929190610b87565b508060079080519060200190610a12929190610b87565b505050505050505050565b606060058054600181600116156101000203166002900480601f016020809104026020016040519081016040528092919081815260200182805460018160011615610100020316600290048015610ab55780601f10610a8a57610100808354040283529160200191610ab5565b820191906000526020600020905b815481529060010190602001808311610a9857829003601f168201915b5050505050905090565b606060038054600181600116156101000203166002900480601f016020809104026020016040519081016040528092919081815260200182805460018160011615610100020316600290048015610b575780601f10610b2c57610100808354040283529160200191610b57565b820191906000526020600020905b815481529060010190602001808311610b3a57829003601f168201915b5050505050905090565b600860009054906101000a900473ffffffffffffffffffffffffffffffffffffffff1681565b828054600181600116156101000203166002900490600052602060002090601f016020900481019282601f10610bc857805160ff1916838001178555610bf6565b82800160010185558215610bf6579182015b82811115610bf5578251825591602001919060010190610bda565b5b509050610c039190610c07565b5090565b610c2991905b80821115610c25576000816000905550600101610c0d565b5090565b905600a165627a7a7230582042f80f70a188b4ec6c831c78a0084954ef3151eda3abdbb786daeed9485918620029a165627a7a723058208af79e775b6b8067f31bf86e1d6e2e6cdbe9d520a4966b89f10051b7ab9a21aa0029",
  "source": "pragma solidity ^0.4.24;\n\nimport \"./Events.sol\";\n\ncontract Charity {\n    \n    struct Giveth{\n        uint256 idGiveth;\n        string name;\n        string location;\n        uint256 idEvent;\n        uint256 totalMoneygive;\n        bool incognito;\n        string Description;\n    } \n    \n    struct Receiver{\n        uint256 idReceiver;\n        string name;\n        uint256 totalMoneyReceived;\n        string Description;\n    }\n\n    address public admin;\n    \n    Giveth[] public arrayGiveth;\n    Receiver[] public arrayReceiver;\n    \n    Events[] public arrayEvents;\n    \n    constructor() public {\n        admin = msg.sender; \n    }\n    \n    modifier ifAdmin{\n        require(msg.sender==admin);\n        _;\n    }\n    \n    function addEvents(uint256 idevent,string name,string dateopen,string dateclose, uint256 totalmoneymin,\n        string location, string receiver, string description) public ifAdmin {\n        Events ev = new Events();\n        ev.createEvents(idevent, name, dateopen, dateclose,  totalmoneymin, location,  receiver, description);\n        arrayEvents.push(ev);\n    }\n    \n    function getNameEvent(uint256 idevent)public view returns(string){\n        for(uint256 i = 0; i < arrayEvents.length; i++) {\n            if(idevent==arrayEvents[i].getidEvent()){\n                return arrayEvents[i].getNameEvent();\n            }\n        }\n    }\n    \n    function getDateOpent(uint256 idevent)public view returns(string){\n        for(uint256 i = 0; i < arrayEvents.length; i++) {\n            if(idevent==arrayEvents[i].getidEvent()){\n                return arrayEvents[i].getdateOpent();\n            }\n        }\n    }\n    \n    function getDateClose(uint256 idevent)public view returns(string){\n        for(uint256 i = 0;i < arrayEvents.length; i++){\n            if(idevent==arrayEvents[i].getidEvent()){\n                return arrayEvents[i].getdateClose();\n            }\n        }\n    }\n    \n    function getTotalMoney(uint256 idevent) public view returns(uint256){\n        for(uint256 i = 0; i < arrayEvents.length; i++){\n            if(idevent==arrayEvents[i].getidEvent()){\n                return arrayEvents[i].gettotalmoney();\n            }\n        }\n    }\n    \n    function getreceiver(uint256 idevent) public view returns(string){\n        for(uint256 i = 0; i < arrayEvents.length; i++) {\n            if(idevent==arrayEvents[i].getidEvent()){\n                return arrayEvents[i].getReceiver();\n            }\n        }\n    }\n    \n    function addGiveth(uint256 id, string name, string location,uint256 idevent, uint256 money, bool incognito, string desc) public {\n        Giveth memory newGiveth = Giveth({\n            idGiveth:id, \n            name:name, \n            location:location, \n            idEvent:idevent, \n            totalMoneygive:money, \n            incognito:incognito, \n            Description:desc\n        });\n        arrayGiveth.push(newGiveth);\n    }\n    \n    function addReceiver(uint256 id,string name, uint256 money, string desc)public ifAdmin {\n        Receiver memory newreceiver = Receiver({\n            idReceiver:id, \n            name:name, \n            totalMoneyReceived:money, \n            Description:desc\n        });\n        arrayReceiver.push(newreceiver);\n    }\n    //get giveth\n    function getNameGiveth(uint256 id) public view returns(string){\n        for(uint256 i = 0; i < arrayGiveth.length; i++){\n            if(id==arrayGiveth[i].idGiveth){\n                return arrayGiveth[i].name;\n            }\n        }\n    }\n    \n    function getLocationGiveth(uint256 id) public view returns(string){\n        for(uint256 i = 0; i < arrayGiveth.length; i++){\n            if(id==arrayGiveth[i].idGiveth){\n                return arrayGiveth[i].location;\n            }\n        }\n    }\n    \n    function getIdEvent(uint256 id)public view returns(uint256){\n        for(uint256 i = 0; i < arrayGiveth.length; i++){\n            if(id==arrayGiveth[i].idGiveth){\n                return arrayGiveth[i].idEvent;\n            }\n        }\n    }\n    \n    function getTotalMoneyGiveth(uint256 id)public view returns(uint256){\n        for(uint256 i = 0; i < arrayGiveth.length; i++){\n            if(id==arrayGiveth[i].idGiveth){\n                return arrayGiveth[i].totalMoneygive;\n            }\n        }\n    }\n    \n    function getIncognito(uint256 id)public view returns(bool){\n        for(uint256 i = 0; i < arrayGiveth.length; i++){\n            if(id==arrayGiveth[i].idGiveth){\n                return arrayGiveth[i].incognito;\n            }\n        }\n    }\n    \n    function getDescriptionGiveth(uint256 id)public view returns(string){\n        for(uint256 i = 0; i < arrayGiveth.length; i++){\n            if(id==arrayGiveth[i].idGiveth){\n                return arrayGiveth[i].Description;\n            }\n        }\n    } \n    //get receiver\n    function getnameReceiver(uint256 id)public view returns(string){\n        for(uint256 i = 0; i < arrayReceiver.length; i++){\n            if(id==arrayReceiver[i].idReceiver){\n                return arrayReceiver[i].name;\n            }\n        }\n    }\n    \n    function gettotalMoneyReceived(uint256 id)public view returns(uint256){\n        for(uint256 i = 0; i < arrayReceiver.length; i++){\n            if(id==arrayReceiver[i].idReceiver){\n                return arrayReceiver[i].totalMoneyReceived;\n            }\n        }\n    }\n\n    function getDescriptionReceived(uint256 id)public view returns(string){\n        for(uint256 i = 0; i < arrayReceiver.length; i++) {\n            if(id==arrayReceiver[i].idReceiver){\n                return arrayReceiver[i].Description;\n            }\n        }\n    }\n}\n",
  "sourcePath": "/mnt/96A2FFBFA2FFA243/Projects/Blockchain/DAppCharity/contracts/Charity.sol",
  "compiler": {
    "name": "solc",
    "version": "0.4.24+commit.e67f0147.Emscripten.clang"
  },
  "schemaVersion": "2.0.1",
  "updatedAt": "2018-09-29T14:31:29.286Z"
}